{
  "_format": "hh-sol-artifact-1",
  "contractName": "PalPaca",
  "sourceName": "contracts/PalPaca.sol",
  "abi": [
    {
      "inputs": [
        {
          "internalType": "string",
          "name": "_initBaseURI",
          "type": "string"
        }
      ],
      "stateMutability": "nonpayable",
      "type": "constructor"
    },
    {
      "inputs": [],
      "name": "ERC721EnumerableForbiddenBatchMint",
      "type": "error"
    },
    {
      "inputs": [
        {
          "internalType": "address",
          "name": "sender",
          "type": "address"
        },
        {
          "internalType": "uint256",
          "name": "tokenId",
          "type": "uint256"
        },
        {
          "internalType": "address",
          "name": "owner",
          "type": "address"
        }
      ],
      "name": "ERC721IncorrectOwner",
      "type": "error"
    },
    {
      "inputs": [
        {
          "internalType": "address",
          "name": "operator",
          "type": "address"
        },
        {
          "internalType": "uint256",
          "name": "tokenId",
          "type": "uint256"
        }
      ],
      "name": "ERC721InsufficientApproval",
      "type": "error"
    },
    {
      "inputs": [
        {
          "internalType": "address",
          "name": "approver",
          "type": "address"
        }
      ],
      "name": "ERC721InvalidApprover",
      "type": "error"
    },
    {
      "inputs": [
        {
          "internalType": "address",
          "name": "operator",
          "type": "address"
        }
      ],
      "name": "ERC721InvalidOperator",
      "type": "error"
    },
    {
      "inputs": [
        {
          "internalType": "address",
          "name": "owner",
          "type": "address"
        }
      ],
      "name": "ERC721InvalidOwner",
      "type": "error"
    },
    {
      "inputs": [
        {
          "internalType": "address",
          "name": "receiver",
          "type": "address"
        }
      ],
      "name": "ERC721InvalidReceiver",
      "type": "error"
    },
    {
      "inputs": [
        {
          "internalType": "address",
          "name": "sender",
          "type": "address"
        }
      ],
      "name": "ERC721InvalidSender",
      "type": "error"
    },
    {
      "inputs": [
        {
          "internalType": "uint256",
          "name": "tokenId",
          "type": "uint256"
        }
      ],
      "name": "ERC721NonexistentToken",
      "type": "error"
    },
    {
      "inputs": [
        {
          "internalType": "address",
          "name": "owner",
          "type": "address"
        },
        {
          "internalType": "uint256",
          "name": "index",
          "type": "uint256"
        }
      ],
      "name": "ERC721OutOfBoundsIndex",
      "type": "error"
    },
    {
      "inputs": [
        {
          "internalType": "address",
          "name": "owner",
          "type": "address"
        }
      ],
      "name": "OwnableInvalidOwner",
      "type": "error"
    },
    {
      "inputs": [
        {
          "internalType": "address",
          "name": "account",
          "type": "address"
        }
      ],
      "name": "OwnableUnauthorizedAccount",
      "type": "error"
    },
    {
      "anonymous": false,
      "inputs": [
        {
          "indexed": true,
          "internalType": "address",
          "name": "owner",
          "type": "address"
        },
        {
          "indexed": true,
          "internalType": "address",
          "name": "approved",
          "type": "address"
        },
        {
          "indexed": true,
          "internalType": "uint256",
          "name": "tokenId",
          "type": "uint256"
        }
      ],
      "name": "Approval",
      "type": "event"
    },
    {
      "anonymous": false,
      "inputs": [
        {
          "indexed": true,
          "internalType": "address",
          "name": "owner",
          "type": "address"
        },
        {
          "indexed": true,
          "internalType": "address",
          "name": "operator",
          "type": "address"
        },
        {
          "indexed": false,
          "internalType": "bool",
          "name": "approved",
          "type": "bool"
        }
      ],
      "name": "ApprovalForAll",
      "type": "event"
    },
    {
      "anonymous": false,
      "inputs": [
        {
          "indexed": true,
          "internalType": "address",
          "name": "previousOwner",
          "type": "address"
        },
        {
          "indexed": true,
          "internalType": "address",
          "name": "newOwner",
          "type": "address"
        }
      ],
      "name": "OwnershipTransferred",
      "type": "event"
    },
    {
      "anonymous": false,
      "inputs": [
        {
          "indexed": true,
          "internalType": "address",
          "name": "from",
          "type": "address"
        },
        {
          "indexed": true,
          "internalType": "address",
          "name": "to",
          "type": "address"
        },
        {
          "indexed": true,
          "internalType": "uint256",
          "name": "tokenId",
          "type": "uint256"
        }
      ],
      "name": "Transfer",
      "type": "event"
    },
    {
      "inputs": [],
      "name": "MAX_TOKENS",
      "outputs": [
        {
          "internalType": "uint256",
          "name": "",
          "type": "uint256"
        }
      ],
      "stateMutability": "view",
      "type": "function"
    },
    {
      "inputs": [],
      "name": "MAX_TOKENS_PER_WALLET",
      "outputs": [
        {
          "internalType": "uint256",
          "name": "",
          "type": "uint256"
        }
      ],
      "stateMutability": "view",
      "type": "function"
    },
    {
      "inputs": [],
      "name": "ROYALTY_FEE_PERCENT",
      "outputs": [
        {
          "internalType": "uint256",
          "name": "",
          "type": "uint256"
        }
      ],
      "stateMutability": "view",
      "type": "function"
    },
    {
      "inputs": [
        {
          "internalType": "address",
          "name": "to",
          "type": "address"
        },
        {
          "internalType": "uint256",
          "name": "tokenId",
          "type": "uint256"
        }
      ],
      "name": "approve",
      "outputs": [],
      "stateMutability": "nonpayable",
      "type": "function"
    },
    {
      "inputs": [
        {
          "internalType": "address",
          "name": "owner",
          "type": "address"
        }
      ],
      "name": "balanceOf",
      "outputs": [
        {
          "internalType": "uint256",
          "name": "",
          "type": "uint256"
        }
      ],
      "stateMutability": "view",
      "type": "function"
    },
    {
      "inputs": [],
      "name": "baseExtension",
      "outputs": [
        {
          "internalType": "string",
          "name": "",
          "type": "string"
        }
      ],
      "stateMutability": "view",
      "type": "function"
    },
    {
      "inputs": [],
      "name": "baseTokenURI",
      "outputs": [
        {
          "internalType": "string",
          "name": "",
          "type": "string"
        }
      ],
      "stateMutability": "view",
      "type": "function"
    },
    {
      "inputs": [
        {
          "internalType": "uint256",
          "name": "tokenId",
          "type": "uint256"
        }
      ],
      "name": "getApproved",
      "outputs": [
        {
          "internalType": "address",
          "name": "",
          "type": "address"
        }
      ],
      "stateMutability": "view",
      "type": "function"
    },
    {
      "inputs": [
        {
          "internalType": "address",
          "name": "owner",
          "type": "address"
        },
        {
          "internalType": "address",
          "name": "operator",
          "type": "address"
        }
      ],
      "name": "isApprovedForAll",
      "outputs": [
        {
          "internalType": "bool",
          "name": "",
          "type": "bool"
        }
      ],
      "stateMutability": "view",
      "type": "function"
    },
    {
      "inputs": [
        {
          "internalType": "uint256",
          "name": "_numTokens",
          "type": "uint256"
        }
      ],
      "name": "mint",
      "outputs": [],
      "stateMutability": "nonpayable",
      "type": "function"
    },
    {
      "inputs": [],
      "name": "name",
      "outputs": [
        {
          "internalType": "string",
          "name": "",
          "type": "string"
        }
      ],
      "stateMutability": "view",
      "type": "function"
    },
    {
      "inputs": [],
      "name": "owner",
      "outputs": [
        {
          "internalType": "address",
          "name": "",
          "type": "address"
        }
      ],
      "stateMutability": "view",
      "type": "function"
    },
    {
      "inputs": [
        {
          "internalType": "uint256",
          "name": "tokenId",
          "type": "uint256"
        }
      ],
      "name": "ownerOf",
      "outputs": [
        {
          "internalType": "address",
          "name": "",
          "type": "address"
        }
      ],
      "stateMutability": "view",
      "type": "function"
    },
    {
      "inputs": [
        {
          "internalType": "bool",
          "name": "_state",
          "type": "bool"
        }
      ],
      "name": "pause",
      "outputs": [],
      "stateMutability": "nonpayable",
      "type": "function"
    },
    {
      "inputs": [],
      "name": "paused",
      "outputs": [
        {
          "internalType": "bool",
          "name": "",
          "type": "bool"
        }
      ],
      "stateMutability": "view",
      "type": "function"
    },
    {
      "inputs": [],
      "name": "renounceOwnership",
      "outputs": [],
      "stateMutability": "nonpayable",
      "type": "function"
    },
    {
      "inputs": [],
      "name": "reveal",
      "outputs": [],
      "stateMutability": "nonpayable",
      "type": "function"
    },
    {
      "inputs": [],
      "name": "revealed",
      "outputs": [
        {
          "internalType": "bool",
          "name": "",
          "type": "bool"
        }
      ],
      "stateMutability": "view",
      "type": "function"
    },
    {
      "inputs": [
        {
          "internalType": "address",
          "name": "from",
          "type": "address"
        },
        {
          "internalType": "address",
          "name": "to",
          "type": "address"
        },
        {
          "internalType": "uint256",
          "name": "tokenId",
          "type": "uint256"
        }
      ],
      "name": "safeTransferFrom",
      "outputs": [],
      "stateMutability": "nonpayable",
      "type": "function"
    },
    {
      "inputs": [
        {
          "internalType": "address",
          "name": "from",
          "type": "address"
        },
        {
          "internalType": "address",
          "name": "to",
          "type": "address"
        },
        {
          "internalType": "uint256",
          "name": "tokenId",
          "type": "uint256"
        },
        {
          "internalType": "bytes",
          "name": "data",
          "type": "bytes"
        }
      ],
      "name": "safeTransferFrom",
      "outputs": [],
      "stateMutability": "nonpayable",
      "type": "function"
    },
    {
      "inputs": [
        {
          "internalType": "address",
          "name": "operator",
          "type": "address"
        },
        {
          "internalType": "bool",
          "name": "approved",
          "type": "bool"
        }
      ],
      "name": "setApprovalForAll",
      "outputs": [],
      "stateMutability": "nonpayable",
      "type": "function"
    },
    {
      "inputs": [
        {
          "internalType": "string",
          "name": "_newBaseExtension",
          "type": "string"
        }
      ],
      "name": "setBaseExtension",
      "outputs": [],
      "stateMutability": "nonpayable",
      "type": "function"
    },
    {
      "inputs": [
        {
          "internalType": "string",
          "name": "_newBaseURI",
          "type": "string"
        }
      ],
      "name": "setBaseURI",
      "outputs": [],
      "stateMutability": "nonpayable",
      "type": "function"
    },
    {
      "inputs": [
        {
          "internalType": "bytes4",
          "name": "interfaceId",
          "type": "bytes4"
        }
      ],
      "name": "supportsInterface",
      "outputs": [
        {
          "internalType": "bool",
          "name": "",
          "type": "bool"
        }
      ],
      "stateMutability": "view",
      "type": "function"
    },
    {
      "inputs": [],
      "name": "symbol",
      "outputs": [
        {
          "internalType": "string",
          "name": "",
          "type": "string"
        }
      ],
      "stateMutability": "view",
      "type": "function"
    },
    {
      "inputs": [
        {
          "internalType": "uint256",
          "name": "index",
          "type": "uint256"
        }
      ],
      "name": "tokenByIndex",
      "outputs": [
        {
          "internalType": "uint256",
          "name": "",
          "type": "uint256"
        }
      ],
      "stateMutability": "view",
      "type": "function"
    },
    {
      "inputs": [
        {
          "internalType": "address",
          "name": "owner",
          "type": "address"
        },
        {
          "internalType": "uint256",
          "name": "index",
          "type": "uint256"
        }
      ],
      "name": "tokenOfOwnerByIndex",
      "outputs": [
        {
          "internalType": "uint256",
          "name": "",
          "type": "uint256"
        }
      ],
      "stateMutability": "view",
      "type": "function"
    },
    {
      "inputs": [
        {
          "internalType": "uint256",
          "name": "tokenId",
          "type": "uint256"
        }
      ],
      "name": "tokenURI",
      "outputs": [
        {
          "internalType": "string",
          "name": "",
          "type": "string"
        }
      ],
      "stateMutability": "view",
      "type": "function"
    },
    {
      "inputs": [],
      "name": "totalSupply",
      "outputs": [
        {
          "internalType": "uint256",
          "name": "",
          "type": "uint256"
        }
      ],
      "stateMutability": "view",
      "type": "function"
    },
    {
      "inputs": [
        {
          "internalType": "address",
          "name": "from",
          "type": "address"
        },
        {
          "internalType": "address",
          "name": "to",
          "type": "address"
        },
        {
          "internalType": "uint256",
          "name": "tokenId",
          "type": "uint256"
        }
      ],
      "name": "transferFrom",
      "outputs": [],
      "stateMutability": "nonpayable",
      "type": "function"
    },
    {
      "inputs": [
        {
          "internalType": "address",
          "name": "newOwner",
          "type": "address"
        }
      ],
      "name": "transferOwnership",
      "outputs": [],
      "stateMutability": "nonpayable",
      "type": "function"
    },
    {
      "inputs": [
        {
          "internalType": "address",
          "name": "_owner",
          "type": "address"
        }
      ],
      "name": "walletOfOwner",
      "outputs": [
        {
          "internalType": "uint256[]",
          "name": "",
          "type": "uint256[]"
        }
      ],
      "stateMutability": "view",
      "type": "function"
    },
    {
      "inputs": [],
      "name": "withdraw",
      "outputs": [],
      "stateMutability": "nonpayable",
      "type": "function"
    }
  ],
  "bytecode": "0x60c06040526005608090815264173539b7b760d91b60a052600c9062000026908262000255565b50600d805461ffff191690553480156200003f57600080fd5b506040516200201138038062002011833981016040819052620000629162000321565b336040518060400160405280600781526020016650616c5061636160c81b815250604051806040016040528060048152602001635041434160e01b8152508160009081620000b1919062000255565b506001620000c0828262000255565b5050506001600160a01b038116620000f357604051631e4fbdf760e01b8152600060048201526024015b60405180910390fd5b620000fe8162000111565b506200010a8162000163565b50620003f6565b600a80546001600160a01b038381166001600160a01b0319831681179093556040519116919082907f8be0079c531659141344cd1fd0a4f28419497f9722a3daafe3b4186f6b6457e090600090a35050565b6200016d6200017f565b600b6200017b828262000255565b5050565b600a546001600160a01b03163314620001ae5760405163118cdaa760e01b8152336004820152602401620000ea565b565b634e487b7160e01b600052604160045260246000fd5b600181811c90821680620001db57607f821691505b602082108103620001fc57634e487b7160e01b600052602260045260246000fd5b50919050565b601f8211156200025057600081815260208120601f850160051c810160208610156200022b5750805b601f850160051c820191505b818110156200024c5782815560010162000237565b5050505b505050565b81516001600160401b03811115620002715762000271620001b0565b6200028981620002828454620001c6565b8462000202565b602080601f831160018114620002c15760008415620002a85750858301515b600019600386901b1c1916600185901b1785556200024c565b600085815260208120601f198616915b82811015620002f257888601518255948401946001909101908401620002d1565b5085821015620003115787850151600019600388901b60f8161c191681555b5050505050600190811b01905550565b600060208083850312156200033557600080fd5b82516001600160401b03808211156200034d57600080fd5b818501915085601f8301126200036257600080fd5b815181811115620003775762000377620001b0565b604051601f8201601f19908116603f01168101908382118183101715620003a257620003a2620001b0565b816040528281528886848701011115620003bb57600080fd5b600093505b82841015620003df5784840186015181850187015292850192620003c0565b600086848301015280965050505050505092915050565b611c0b80620004066000396000f3fe608060405234801561001057600080fd5b50600436106101fb5760003560e01c80636352211e1161011a578063b88d4fde116100ad578063d547cfb71161007c578063d547cfb7146103ff578063da3ef23f14610407578063e985e9c51461041a578063f2fde38b1461042d578063f47c84c51461044057600080fd5b8063b88d4fde146103c9578063c6682862146103dc578063c87b56dd146103e4578063d1bdb1d1146103f757600080fd5b806395d89b41116100e957806395d89b4114610393578063a0712d681461039b578063a22cb465146103ae578063a475b5dd146103c157600080fd5b80636352211e1461035457806370a0823114610367578063715018a61461037a5780638da5cb5b1461038257600080fd5b80632f745c59116101925780634f6ccce7116101615780634f6ccce71461030f578063518302271461032257806355f804b3146103345780635c975abb1461034757600080fd5b80632f745c59146102c15780633ccfd60b146102d457806342842e0e146102dc578063438b6300146102ef57600080fd5b8063095ea7b3116101ce578063095ea7b31461027d5780630e1e0ef51461029057806318160ddd146102a657806323b872dd146102ae57600080fd5b806301ffc9a71461020057806302329a291461022857806306fdde031461023d578063081812fc14610252575b600080fd5b61021361020e3660046115bf565b610449565b60405190151581526020015b60405180910390f35b61023b6102363660046115f1565b610474565b005b61024561048f565b60405161021f919061165c565b61026561026036600461166f565b610521565b6040516001600160a01b03909116815260200161021f565b61023b61028b36600461169f565b61054a565b610298600581565b60405190815260200161021f565b600854610298565b61023b6102bc3660046116c9565b610559565b6102986102cf36600461169f565b6105e9565b61023b61064e565b61023b6102ea3660046116c9565b610692565b6103026102fd366004611705565b6106b2565b60405161021f9190611720565b61029861031d36600461166f565b610754565b600d5461021390610100900460ff1681565b61023b6103423660046117f0565b6107ad565b600d546102139060ff1681565b61026561036236600461166f565b6107c1565b610298610375366004611705565b6107cc565b61023b610814565b600a546001600160a01b0316610265565b610245610828565b61023b6103a936600461166f565b610837565b61023b6103bc366004611839565b610841565b61023b61084c565b61023b6103d736600461186c565b610865565b61024561087c565b6102456103f236600461166f565b61090a565b610298600281565b6102456109d5565b61023b6104153660046117f0565b6109e2565b6102136104283660046118e8565b6109f6565b61023b61043b366004611705565b610a24565b6102986103e881565b60006001600160e01b0319821663780e9d6360e01b148061046e575061046e82610a5f565b92915050565b61047c610aaf565b600d805460ff1916911515919091179055565b60606000805461049e90611912565b80601f01602080910402602001604051908101604052809291908181526020018280546104ca90611912565b80156105175780601f106104ec57610100808354040283529160200191610517565b820191906000526020600020905b8154815290600101906020018083116104fa57829003601f168201915b5050505050905090565b600061052c82610adc565b506000828152600460205260409020546001600160a01b031661046e565b610555828233610b15565b5050565b6001600160a01b03821661058857604051633250574960e11b8152600060048201526024015b60405180910390fd5b6000610595838333610b22565b9050836001600160a01b0316816001600160a01b0316146105e3576040516364283d7b60e01b81526001600160a01b038086166004830152602482018490528216604482015260640161057f565b50505050565b60006105f4836107cc565b82106106255760405163295f44f760e21b81526001600160a01b03841660048201526024810183905260440161057f565b506001600160a01b03919091166000908152600660209081526040808320938352929052205490565b610656610aaf565b600a546040516001600160a01b03909116904780156108fc02916000818181858888f1935050505015801561068f573d6000803e3d6000fd5b50565b6106ad83838360405180602001604052806000815250610865565b505050565b606060006106bf836107cc565b905060008167ffffffffffffffff8111156106dc576106dc611764565b604051908082528060200260200182016040528015610705578160200160208202803683370190505b50905060005b8281101561074c5761071d85826105e9565b82828151811061072f5761072f61194c565b60209081029190910101528061074481611978565b91505061070b565b509392505050565b600061075f60085490565b82106107885760405163295f44f760e21b8152600060048201526024810183905260440161057f565b6008828154811061079b5761079b61194c565b90600052602060002001549050919050565b6107b5610aaf565b600b61055582826119df565b600061046e82610adc565b60006001600160a01b0382166107f8576040516322718ad960e21b81526000600482015260240161057f565b506001600160a01b031660009081526003602052604090205490565b61081c610aaf565b6108266000610bf7565b565b60606001805461049e90611912565b61068f8133610c49565b610555338383610d7b565b610854610aaf565b600d805461ff001916610100179055565b610870848484610559565b6105e384848484610e1a565b600c805461088990611912565b80601f01602080910402602001604051908101604052809291908181526020018280546108b590611912565b80156109025780601f106108d757610100808354040283529160200191610902565b820191906000526020600020905b8154815290600101906020018083116108e557829003601f168201915b505050505081565b606081600e5410156109765760405162461bcd60e51b815260206004820152602f60248201527f4552433732314d657461646174613a2055524920717565727920666f72206e6f60448201526e3732bc34b9ba32b73a103a37b5b2b760891b606482015260840161057f565b6000610980610f43565b905060008151116109a057604051806020016040528060008152506109ce565b806109aa84610f52565b600c6040516020016109be93929190611a9f565b6040516020818303038152906040525b9392505050565b600f805461088990611912565b6109ea610aaf565b600c61055582826119df565b6001600160a01b03918216600090815260056020908152604080832093909416825291909152205460ff1690565b610a2c610aaf565b6001600160a01b038116610a5657604051631e4fbdf760e01b81526000600482015260240161057f565b61068f81610bf7565b60006001600160e01b031982166380ac58cd60e01b1480610a9057506001600160e01b03198216635b5e139f60e01b145b8061046e57506301ffc9a760e01b6001600160e01b031983161461046e565b600a546001600160a01b031633146108265760405163118cdaa760e01b815233600482015260240161057f565b6000818152600260205260408120546001600160a01b03168061046e57604051637e27328960e01b81526004810184905260240161057f565b6106ad8383836001610fe5565b600080610b308585856110eb565b90506001600160a01b038116610b8d57610b8884600880546000838152600960205260408120829055600182018355919091527ff3f7a9fe364faab93b216da50a3214154f22a0a2b415b23a84c8169e8b636ee30155565b610bb0565b846001600160a01b0316816001600160a01b031614610bb057610bb081856111e4565b6001600160a01b038516610bcc57610bc784611275565b610bef565b846001600160a01b0316816001600160a01b031614610bef57610bef8585611324565b949350505050565b600a80546001600160a01b038381166001600160a01b0319831681179093556040519116919082907f8be0079c531659141344cd1fd0a4f28419497f9722a3daafe3b4186f6b6457e090600090a35050565b6103e8600e5410610c9c5760405162461bcd60e51b815260206004820152601b60248201527f416c6c20746f6b656e732068617665206265656e206d696e7465640000000000604482015260640161057f565b600a546001600160a01b03163314610d2a57600282610cba836107cc565b610cc49190611b3f565b1115610d2a5760405162461bcd60e51b815260206004820152602f60248201527f43616e6e6f74206d696e74206d6f726520746f6b656e73207468616e20616c6c60448201526e1bddd959081c195c881dd85b1b195d608a1b606482015260840161057f565b60005b828110156106ad576000600e546001610d469190611b3f565b9050610d528382611374565b600e8054906000610d6283611978565b9190505550508080610d7390611978565b915050610d2d565b6001600160a01b038216610dad57604051630b61174360e31b81526001600160a01b038316600482015260240161057f565b6001600160a01b03838116600081815260056020908152604080832094871680845294825291829020805460ff191686151590811790915591519182527f17307eab39ab6107e8899845ad3d59bd9653f200f220920489ca2b5937696c31910160405180910390a3505050565b6001600160a01b0383163b156105e357604051630a85bd0160e11b81526001600160a01b0384169063150b7a0290610e5c903390889087908790600401611b52565b6020604051808303816000875af1925050508015610e97575060408051601f3d908101601f19168201909252610e9491810190611b8f565b60015b610f00573d808015610ec5576040519150601f19603f3d011682016040523d82523d6000602084013e610eca565b606091505b508051600003610ef857604051633250574960e11b81526001600160a01b038516600482015260240161057f565b805181602001fd5b6001600160e01b03198116630a85bd0160e11b14610f3c57604051633250574960e11b81526001600160a01b038516600482015260240161057f565b5050505050565b6060600b805461049e90611912565b60606000610f5f8361138e565b600101905060008167ffffffffffffffff811115610f7f57610f7f611764565b6040519080825280601f01601f191660200182016040528015610fa9576020820181803683370190505b5090508181016020015b600019016f181899199a1a9b1b9c1cb0b131b232b360811b600a86061a8153600a8504945084610fb357509392505050565b8080610ff957506001600160a01b03821615155b156110bb57600061100984610adc565b90506001600160a01b038316158015906110355750826001600160a01b0316816001600160a01b031614155b8015611048575061104681846109f6565b155b156110715760405163a9fbf51f60e01b81526001600160a01b038416600482015260240161057f565b81156110b95783856001600160a01b0316826001600160a01b03167f8c5be1e5ebec7d5bd14f71427d1e84f3dd0314c0f7b2291e5b200ac8c7c3b92560405160405180910390a45b505b5050600090815260046020526040902080546001600160a01b0319166001600160a01b0392909216919091179055565b6000828152600260205260408120546001600160a01b039081169083161561111857611118818486611466565b6001600160a01b0381161561115657611135600085600080610fe5565b6001600160a01b038116600090815260036020526040902080546000190190555b6001600160a01b03851615611185576001600160a01b0385166000908152600360205260409020805460010190555b60008481526002602052604080822080546001600160a01b0319166001600160a01b0389811691821790925591518793918516917fddf252ad1be2c89b69c2b068fc378daa952ba7f163c4a11628f55a4df523b3ef91a4949350505050565b60006111ef836107cc565b600083815260076020526040902054909150808214611242576001600160a01b03841660009081526006602090815260408083208584528252808320548484528184208190558352600790915290208190555b5060009182526007602090815260408084208490556001600160a01b039094168352600681528383209183525290812055565b60085460009061128790600190611bac565b600083815260096020526040812054600880549394509092849081106112af576112af61194c565b9060005260206000200154905080600883815481106112d0576112d061194c565b600091825260208083209091019290925582815260099091526040808220849055858252812055600880548061130857611308611bbf565b6001900381819060005260206000200160009055905550505050565b60006001611331846107cc565b61133b9190611bac565b6001600160a01b039093166000908152600660209081526040808320868452825280832085905593825260079052919091209190915550565b6105558282604051806020016040528060008152506114ca565b60008072184f03e93ff9f4daa797ed6e38ed64bf6a1f0160401b83106113cd5772184f03e93ff9f4daa797ed6e38ed64bf6a1f0160401b830492506040015b6d04ee2d6d415b85acef810000000083106113f9576d04ee2d6d415b85acef8100000000830492506020015b662386f26fc10000831061141757662386f26fc10000830492506010015b6305f5e100831061142f576305f5e100830492506008015b612710831061144357612710830492506004015b60648310611455576064830492506002015b600a831061046e5760010192915050565b6114718383836114e1565b6106ad576001600160a01b03831661149f57604051637e27328960e01b81526004810182905260240161057f565b60405163177e802f60e01b81526001600160a01b03831660048201526024810182905260440161057f565b6114d48383611544565b6106ad6000848484610e1a565b60006001600160a01b03831615801590610bef5750826001600160a01b0316846001600160a01b0316148061151b575061151b84846109f6565b80610bef5750506000908152600460205260409020546001600160a01b03908116911614919050565b6001600160a01b03821661156e57604051633250574960e11b81526000600482015260240161057f565b600061157c83836000610b22565b90506001600160a01b038116156106ad576040516339e3563760e11b81526000600482015260240161057f565b6001600160e01b03198116811461068f57600080fd5b6000602082840312156115d157600080fd5b81356109ce816115a9565b803580151581146115ec57600080fd5b919050565b60006020828403121561160357600080fd5b6109ce826115dc565b60005b8381101561162757818101518382015260200161160f565b50506000910152565b6000815180845261164881602086016020860161160c565b601f01601f19169290920160200192915050565b6020815260006109ce6020830184611630565b60006020828403121561168157600080fd5b5035919050565b80356001600160a01b03811681146115ec57600080fd5b600080604083850312156116b257600080fd5b6116bb83611688565b946020939093013593505050565b6000806000606084860312156116de57600080fd5b6116e784611688565b92506116f560208501611688565b9150604084013590509250925092565b60006020828403121561171757600080fd5b6109ce82611688565b6020808252825182820181905260009190848201906040850190845b818110156117585783518352928401929184019160010161173c565b50909695505050505050565b634e487b7160e01b600052604160045260246000fd5b600067ffffffffffffffff8084111561179557611795611764565b604051601f8501601f19908116603f011681019082821181831017156117bd576117bd611764565b816040528093508581528686860111156117d657600080fd5b858560208301376000602087830101525050509392505050565b60006020828403121561180257600080fd5b813567ffffffffffffffff81111561181957600080fd5b8201601f8101841361182a57600080fd5b610bef8482356020840161177a565b6000806040838503121561184c57600080fd5b61185583611688565b9150611863602084016115dc565b90509250929050565b6000806000806080858703121561188257600080fd5b61188b85611688565b935061189960208601611688565b925060408501359150606085013567ffffffffffffffff8111156118bc57600080fd5b8501601f810187136118cd57600080fd5b6118dc8782356020840161177a565b91505092959194509250565b600080604083850312156118fb57600080fd5b61190483611688565b915061186360208401611688565b600181811c9082168061192657607f821691505b60208210810361194657634e487b7160e01b600052602260045260246000fd5b50919050565b634e487b7160e01b600052603260045260246000fd5b634e487b7160e01b600052601160045260246000fd5b60006001820161198a5761198a611962565b5060010190565b601f8211156106ad57600081815260208120601f850160051c810160208610156119b85750805b601f850160051c820191505b818110156119d7578281556001016119c4565b505050505050565b815167ffffffffffffffff8111156119f9576119f9611764565b611a0d81611a078454611912565b84611991565b602080601f831160018114611a425760008415611a2a5750858301515b600019600386901b1c1916600185901b1785556119d7565b600085815260208120601f198616915b82811015611a7157888601518255948401946001909101908401611a52565b5085821015611a8f5787850151600019600388901b60f8161c191681555b5050505050600190811b01905550565b600084516020611ab28285838a0161160c565b855191840191611ac58184848a0161160c565b8554920191600090611ad681611912565b60018281168015611aee5760018114611b0357611b2f565b60ff1984168752821515830287019450611b2f565b896000528560002060005b84811015611b2757815489820152908301908701611b0e565b505082870194505b50929a9950505050505050505050565b8082018082111561046e5761046e611962565b6001600160a01b0385811682528416602082015260408101839052608060608201819052600090611b8590830184611630565b9695505050505050565b600060208284031215611ba157600080fd5b81516109ce816115a9565b8181038181111561046e5761046e611962565b634e487b7160e01b600052603160045260246000fdfea26469706673582212206e27b55f26eb54f6ba97848a07123d04b1e123d5f39c7b367777dcf8f953aa0e64736f6c63430008140033",
  "linkReferences": {},
  "deployedLinkReferences": {}
}